:100000000C9459040C9481040C9481040C94810484
:100010000C9481040C9481040C9481040C9481044C
:100020000C9481040C9456070C9481040C94810464
:100030000C9481040C9481040C9481040C9481042C
:100040000C94041A0C9481040C9427190C945919DB
:100050000C9481040C9481040C9481040C9481040C
:100060000C94FB090C948104C500B600A600960010
:10007000880074004E6F7420445331387832302039
:100080006465766963652E0043686970203D20448D
:1000900053313832320043686970203D2044533177
:1000A00038423230200043686970203D204453318B
:1000B000385332302000435243206E6F74207661F3
:1000C0006C696421005363616E6E696E67207365AD
:1000D0006E736F7200F100E600DB0053657475709B
:1000E0002048756D690053657475702054656D7096
:1000F00000486561746572206368616D62657200B5
:10010000005EBCE2613FDD83C29C7E20A3FD1F41F7
:100110009DC3217FFCA2401E5F01E3BD3E6082DCE7
:10012000237D9FC1421CFEA0E1BF5D0380DE3C62D7
:10013000BEE0025CDF81633D7C22C09E1D43A1FFC7
:100140004618FAA427799BC584DA3866E5BB5907B7
:10015000DB856739BAE406581947A5FB7826C49AA7
:10016000653BD987045AB8E6A7F91B45C6987A2497
:10017000F8A6441A99C7257B3A6486D85B05E7B987
:100180008CD2306EEDB3510F4E10F2AC2F7193CD77
:10019000114FADF3702ECC92D38D6F31B2EC0E5067
:1001A000AFF1134DCE90722C6D33D18F0C52B0EE57
:1001B000326C8ED0530DEFB1F0AE4C1291CF2D7347
:1001C000CA947628ABF517490856B4EA6937D58B37
:1001D0005709EBB536688AD495CB2977F4AA481627
:1001E000E9B7550B88D6346A2B7597C94A14F6A817
:1001F000742AC896154BA9F7B6E80A54D7896B3507
:100200000406205F00000003A000C00C00F94F802E
:100210006BEB00988C8052A58003000001C8808998
:10022000C00050850021C20008400020820000204C
:1002300000188C00FA2F804BE0805A66808AA50057
:10024000E08F80EAAB0072A9009A8C00FAAF804A76
:10025000A700014000094000214880514500894223
:100260000042660072A6807A8780FAA50072250097
:10027000FA2700FAA880FA8800722B00F88F808B8A
:10028000E8808BE800F88D80F82080F90F80F9CFA6
:1002900080722700FA8400722740FA85804AA900FC
:1002A00083E800F02F00E06E00F0EF00D88D80C0F2
:1002B000EC009AAC8003E880C081808BE0004204AF
:1002C00000082080020400312380F92300312480BB
:1002D000312F8031628023EA00255380F9038002A8
:1002E000E00006E000F8428003E0007987803903EF
:1002F000803123007D23003127C07884002940000D
:1003000043E40070270060660070670048C4807492
:10031000578059E68023E8800360008BE200610C7F
:10032000000608205F0000000000000000002F0011
:100330000000000700070000147F147F1400242A27
:100340007F2A1200231308646200364955225000A8
:10035000000503000000001C224100000041221C97
:10036000000014083E08140008083E0808000000B9
:10037000A060000008080808080000606000000095
:100380002010080402003E5149453E0000427F40D3
:1003900000004261514946002141454B310018148B
:1003A000127F10002745454539003C4A4949300035
:1003B00001710905030036494949360006494929B2
:1003C0001E000036360000000056360000000814FB
:1003D00022410000141414141400004122140800D7
:1003E000020151090600324959513E007C12111296
:1003F0007C007F49494936003E41414122007F410E
:1004000041221C007F49494941007F090909010037
:100410003E4149497A007F0808087F0000417F413A
:1004200000002040413F01007F08142241007F402E
:10043000404040007F020C027F007F0408107F00D4
:100440003E4141413E007F09090906003E415121DC
:100450005E007F09192946004649494931000101DA
:100460007F0101003F4040403F001F2040201F000F
:100470003F4038403F0063140814630007087008C9
:100480000700615149454300007F414100AA55AA38
:1004900055AA55000041417F0000040201020400FA
:1004A00040404040400000030500000020545454E8
:1004B00078007F484444380038444444200038449D
:1004C00044487F00385454541800087E0901020043
:1004D00018A4A4A47C007F080404780000447D4094
:1004E00000004080847D00007F102844000000410F
:1004F0007F4000007C04180478007C080404780025
:10050000384444443800FC242424180018242418B7
:10051000FC007C0804040800485454542000043FA4
:10052000444020003C4040207C001C2040201C0017
:100530003C4030403C004428102844001CA0A0A0AF
:100540007C004464544C440000107C820000000095
:10055000FF00000000827C10000000060909060070
:100560000000000000000080C0E0F0F8F8FCFCFE95
:10057000FE7F7F7F3F3F3F3F3F7F7F7FFEFEFEFC52
:10058000FCF8F0F0E0C080000000000080C0E0F067
:10059000F0F8FCFCFEFEFE7F7F7F3F3F3F3F7F7F0A
:1005A0007F7FFEFEFCFCF8F8F0E0C0860606000047
:1005B0000000000000000000C0FCFFFFFFFFFF1F65
:1005C0000701000000008080808080808080808023
:1005D0008000000101030F1F3FFFFFFFFEFCFEFF35
:1005E000FFFF3F1F0F030101000080808080F8F8AB
:1005F000F8F88080800000000001071FFFFFFFFF68
:10060000FFFCE00000000000000000000F7FFFFF83
:10061000FFFFFFF0C0000000000007070707070703
:1006200007070707030000000080C0F0F8FEFFFF87
:10063000FFFFFFFFFFFEF8F0C0800000000007078B
:1006400007073F3F3F3F0707070000000000C0F0DB
:10065000FFFFFFFFFF7F0F00000000000000000011
:1006600000000003070F1F3F7F7FFFFEFEFCFCF82A
:10067000F8F8F8F8F8F8FCFCFCFEFF7F7F3F3F1F1E
:100680000F0703010000000103070F1F3F3F7F7F9B
:10069000FFFEFCFCFCF8F8F8F8F8F8F8FCFCFEFEAD
:1006A000FF7F7F3F1F0F07030000000000000000D6
:1006B000000000000000000000C0C0C0800000007A
:1006C00000C1C1C1C1C1C181810101C1C1C0C0C0DE
:1006D000C08000000080C0C0000000C0C0800000DA
:1006E000C0C0C0C0C0C0C1C10101C1C1C1010101C0
:1006F000C1C101000080C0C0C0C0808000000000F7
:1007000000000000000000000000C0F8FF3F3B3F79
:100710007FFEF00000FFFFFF1C3CFFFFC70000FF53
:10072000FFFFE0E0F17F3F1F003F7FFFE0C0E0FF01
:100730007F3F0000E0E0FFFFFFE0E0C00000FFFFC0
:10074000070F3EFCFFFF00003F7FFFE0C0E17F7F1F
:100750000E00000000000000000008000201000080
:10076000030407000000000000000001020408105C
:100770002040800102040810200102040810200417
:100780000404040404040402020202020203030338
:1007900003030300000000230026002900000000DE
:1007A00000250028002B0000000000240027002A5C
:1007B0000000407A10F35A00A0724E18090010A5EC
:1007C000D4E80000E87648170000E40B540200006B
:1007D000CA9A3B000000E1F50500008096980000F1
:1007E0000040420F000000A086010000001027001A
:1007F000000000E803000000006400000000000AA0
:1008000000000000000100000000002C76D888DC09
:10081000674F0823DFC1DFAE59E1B1B796E5E3E4E6
:1008200053C63AE651997696E8E6C28426EB898C5F
:100830009B62ED407C6FFCEFBC9C9F40F2BAA56FC1
:10084000A5F490055A2AF75C936B6CF9676DC11B90
:10085000FCE0E40D47FEF520E6B500D0ED902E0358
:1008600000943577050080841E080000204E0A00A1
:100870000000C80C333333330F986E12831141EFED
:100880008D2114893BE65516CFFEE6DB18D1844B4B
:10089000381BF77C1D901DA4BBE424203284725EBB
:1008A000228100C9F124ECA1E53D27005809BF0BC6
:1008B000891911241FBECFEFD8E0DEBFCDBF11E0F4
:1008C000A0E0B1E0E8E5F2E402C005900D92AC359D
:1008D000B107D9F725E0ACE5B1E001C01D92A13820
:1008E000B207E1F718E0C2EBD8E004C02297FE019E
:1008F0000E94921ECC3AD107C9F70E94F5190C94B8
:100900002A210C9400008F92AF92BF92CF92EF9267
:10091000FF920F931F93E0911B04EE0FFF0BEB521E
:10092000FF4F659174918DEE93E00E94B71EE091A8
:10093000DE03F0E0EE0FFF1FE859FF4F6591749161
:100940008FED93E00E94B71E8CE591E00E94A61106
:100950000FE210E023E530E040E050E060E070E0BE
:100960008CE591E00E94C21561E273E08CE591E0B4
:100970000E94461521E030E041E050E06DEE73E06A
:100980008CE591E00E946F132BE030E041E050E0F5
:1009900062E271E08CE591E00E946F134091FF03E9
:1009A00050910004609101047091020410E2812EC4
:1009B000A12CB12CCC24C3940BE0E02EF12C0EE141
:1009C00010E021E08CE591E00E94C8146091FB03E7
:1009D0007091FC038091FD039091FE030E94DD1C49
:1009E000AB01BC0180E2C82EEE24E394F12C0BE0B5
:1009F00010E02BE330E08CE591E00E94D013809171
:100A00001B048D7FB9F525E130E041E050E066E25E
:100A100071E08CE591E00E946F1340910B045091BE
:100A20000C0460910D0470910E04CC24C394E5E194
:100A3000EE2EF12C0EE110E021E08CE591E00E9419
:100A4000C81460910304709104048091050490918E
:100A500006040E94DD1CAB01BC01F0E2CF2EEE24A7
:100A6000E394F12C05E110E02BE330E08CE591E01C
:100A70000E94D01380911B048230D8F52FE130E022
:100A800041E050E06BE271E08CE591E00E946F1371
:100A900040910F0450911004609111047091120460
:100AA00080E2882EA12CB12CCC24C3949FE1E92EA6
:100AB000F12C0EE110E021E08CE591E00E94C814D9
:100AC00060910704709108048091090490910A04D0
:100AD0000E94DD1CAB01BC0120E2C22EEE24E39497
:100AE000F12C0FE110E02BE330E08CE591E00E9467
:100AF000D01360E072E08CE591E00E94461529E297
:100B000030E041E050E06FED73E08CE591E00E9451
:100B10006F138CE591E01F910F91FF90EF90CF90B4
:100B2000BF90AF908F900C947C110F931F93CF9335
:100B3000DF93CEE1D1E08E0160E089910E94731BCA
:100B400061E0F80180810E94AC1BF1E0C232DF0756
:100B500091F71092B00087E08093B100809170000F
:100B6000816080937000DF91CF911F910F91089564
:100B700080911B048F5F83301CF480931B040895C5
:100B800010921B0408950F931F93CF93DF9301ECF2
:100B900013E0C0E0D0E0CE010E94BE1EF8018193B8
:100BA0008F012196CD31D105B1F7DF91CF911F9102
:100BB0000F910895EF92FF920F931F9326E040E06C
:100BC00052EC61E070E08BED94E00E94C5180E9449
:100BD000C3050E94950566E470E08CE591E00E94F3
:100BE000B31161E08CE00E94731B60E08CE00E9416
:100BF000AC1B61E08DE00E94731B61E08DE00E9400
:100C0000AC1B61E089E00E94731B8091D603909138
:100C1000D703A091D803B091D90380930704909390
:100C20000804A0930904B0930A0461E070E08FE621
:100C300093E00E94DC0D20E3E22EF12C04E510E0AD
:100C40002FE535E040E050E060E070E08CE591E0B9
:100C50000E940C1660ED77E080E090E00E947D1A23
:100C600061E08CE591E00E94301264EF71E080E079
:100C700090E00E947D1A60E08CE591E00E943012C5
:100C800064EF71E080E090E00E947D1A60E08DE00A
:100C90001F910F91FF90EF900C94AC1BEF92FF927D
:100CA0000F931F93CF93DF931F92CDB7DEB701EC65
:100CB00013E0E12CF12CF80161918F01C7016983E8
:100CC0000E94BE1E6981681719F0C7010E94C61EE6
:100CD000FFEFEF1AFF0A8DE1E816F10461F70F90BC
:100CE000DF91CF911F910F91FF90EF900895609346
:100CF000D6037093D7038093D8039093D9030E94AF
:100D00004E060C94C3056093DA037093DB03809363
:100D1000DC039093DD030E944E060C94C3058130E2
:100D200019F0823089F008952DEC3CEC4CEC5DE339
:100D30006091D6037091D7038091D8039091D90325
:100D40000E940D1C0C9477062DEC3CEC4CEC5DE302
:100D50006091DA037091DB038091DC039091DD03F5
:100D60000E940D1C0C948306813019F0823089F0AA
:100D700008952DEC3CEC4CEC5DE36091D603709152
:100D8000D7038091D8039091D9030E940C1C0C9436
:100D900077062DEC3CEC4CEC5DE36091D603709152
:100DA000D7038091D8039091D9030E940C1C0C9416
:100DB0008306E82FF0E0E25EFE4F8081833079F019
:100DC00018F4823041F00895843019F0853059F0DC
:100DD00008950C94B80580911B040C948F068091A3
:100DE0001B040C94B4068CE00E94E21B61E0892B8A
:100DF00009F060E08CE00C94AC1BCF92DF92EF9294
:100E0000FF920F931F93CF93DF9361E080911B04B8
:100E1000811101C060E08DE00E94AC1BC090130402
:100E2000D0901404E0901504F09016040E944E1A1D
:100E30002AE0C20ED11CE11CF11C6C157D058E054B
:100E40009F0558F10E944E1A609313047093140486
:100E500080931504909316040EE111E0C0E0D0E0F9
:100E6000F80181918F010E94E21BD82ECE01895E8C
:100E70009B4F7C01FC018081D81659F0D11003C032
:100E80008C2F0E94D90681E0D11001C080E0F701CB
:100E900080832196C430D10519F7DF91CF911F913E
:100EA0000F91FF90EF90DF90CF9008951F920F92D7
:100EB0000FB60F9211242F933F934F935F936F932D
:100EC0007F938F939F93AF93BF93EF93FF930E9472
:100ED000FD06FF91EF91BF91AF919F918F917F910F
:100EE0006F915F914F913F912F910F900FBE0F9097
:100EF0001F901895CF92DF92EF92FF920F931F935E
:100F0000CF93DF93CDB7DEB764970FB6F894DEBF0B
:100F10000FBECDBF8C01BE01635F7F4F83EB93E0BB
:100F20000E94F30F81110DC0F801108283EB93E052
:100F30000E94BE0F6AEF70E080E090E00E947D1A90
:100F40000BC067E0CE010D960E9489109C8989171D
:100F500041F081E0F801808360E07CE38CE196E47D
:100F60008AC08D85823271F0883251F0803189F4E7
:100F700082E0F8018083DD24D394CC24C3940DC097
:100F800083E001C084E0F8018083DD24D394C12C88
:100F900004C085E0F8018083D12C83EB93E00E94AC
:100FA0009B0EBE01635F7F4F83EB93E00E94960F21
:100FB00041E064E483EB93E00E94380F68EE73E055
:100FC00080E090E00E947D1A83EB93E00E949B0EEC
:100FD000BE01635F7F4F83EB93E00E94960F40E07A
:100FE0006EEB83EB93E00E94380F8E010F5F1F4F73
:100FF0007E01FAE0EF0EF11C83EB93E00E947A0F82
:10100000F80181938F01EE15FF05B1F76A8170E059
:10101000762F66278981682BCC2099F0DD20F9F0A6
:1010200033E0660F771F3A95E1F788858031B9F490
:101030002F818CE090E0821B9109607F680F791FFF
:101040000EC0DD2061F08D81807611F4687F07C0CD
:10105000803211F46C7F03C0803409F46E7F8827DE
:1010600077FD8095982F0E94101D20E030E040E829
:101070005DE30E94C41D64960FB6F894DEBF0FBEF8
:10108000CDBFDF91CF911F910F91FF90EF90DF9037
:10109000CF9008950F931F93CF93DF938C01EB01B3
:1010A00088EA93E00E94B616892B49F56091B10356
:1010B0007091B203882777FD8095982F0E94101DAC
:1010C00020E030E040E251E40E94751CF8016083AA
:1010D0007183828393836091AF037091B0038827FB
:1010E00077FD8095982F0E94101D20E030E040E2AF
:1010F00051E40E94751C688379838A839B83DF9106
:10110000CF911F910F910895CF92DF92EF92FF92AE
:101110000F931F938091D6039091D703A091D8038A
:10112000B091D9038093070490930804A093090415
:10113000B0930A048091DA039091DB03A091DC0361
:10114000B091DD038093030490930404A0930504FD
:10115000B09306048EED93E00E947A076B017C0148
:1011600020E03CE34CE156E40E94711C882341F0EE
:10117000C092FF03D0920004E0920104F0920204B6
:101180006BE074E08FE094E00E944A082091FF0336
:1011900030910004409101045091020460910704D1
:1011A000709108048091090490910A040E940C1C1B
:1011B0006B017C0120E030E0A9010E94C01D1816DF
:1011C00024F0F7FAF094F7F8F09420E030E040E2F1
:1011D00051E4C701B6010E94711C87FF19C0C0907D
:1011E0000601D0900701E0900801F09009010091FC
:1011F0000A0110910B0120910C0130910D014091D9
:101200000E0150910F01609110017091110118C0F1
:10121000C0901201D0901301E0901401F0901501DC
:1012200000911601109117012091180130911901B8
:1012300040911A0150911B0160911C0170911D0198
:101240008FE693E00E94E30C8FE693E00E94C30BCD
:101250006091FB037091FC038091FD039091FE036C
:101260000E94E21C70E089E00E94EB1A20910304C6
:1012700030910404409105045091060460910B04E0
:1012800070910C0480910D0490910E040E94711CC9
:1012900087FF02C061E001C060E088E00E94AC1BF3
:1012A0001F910F91FF90EF90DF90CF900C948304EB
:1012B000AF92BF92CF92DF92EF92FF920F931F9364
:1012C00081E08093C103E2ECF3E084E1DF011D9251
:1012D0008A95E9F780E391E09183808380E090E054
:1012E000A0E7B2E48093D6039093D703A093D803EA
:1012F000B093D9038093DA039093DB03A093DC03CC
:10130000B093DD0366E083EB93E00E94D00F67E0CB
:1013100088EA93E00E949116A0900A01B0900B0118
:10132000C0900C01D0900D01E0900E01F0900F01E3
:1013300000911001109111011F921F9280910901DB
:101340008F93809108018F93809107018F938091F3
:1013500006018F9327E034E04BEF53E06FEF73E02B
:101360008FE693E00E942E0E5EE0E52EF12C0BE05E
:1013700010E02FE030E040E150E061E170E08CE50A
:1013800091E00E9495100F900F900F900F900F908A
:101390000F901F910F91FF90EF90DF90CF90BF9033
:1013A000AF900895613298F420918904243089F433
:1013B00060933E04FC0180E494E0DC012A2F281BAA
:1013C000261718F421912D93F9CF80E0089581E03C
:1013D000089582E0089585ED8093BC008091BC0063
:1013E00084FDFCCF10928904089585EC8093BC00A5
:1013F0001092890408951F920F920FB60F92112434
:101400002F933F934F935F936F937F938F939F930C
:10141000AF93BF93EF93FF938091B900887F80369D
:1014200009F49CC068F5883209F45BC090F48031FF
:1014300009F454C038F4882309F4F5C0883009F45D
:101440004DC0F5C0883109F44CC0803209F45DC04C
:10145000EEC0803409F468C048F4803309F455C004
:10146000883309F0E4C080931C04A8C0803509F4D7
:101470004FC0883509F45DC0883409F0D8C0D5C0A4
:10148000883909F4C6C0A8F4883709F467C038F46D
:10149000883609F463C0803709F460C0C8C0883852
:1014A00009F4B7C0803909F45FC0803809F0BFC0C3
:1014B0005BC0803B09F485C038F4803A09F466C00B
:1014C000883A09F47EC0B3C0803C09F4A6C0883CC9
:1014D00009F4A3C0883B09F489C0A9C0809188049D
:1014E00010C09091610480916004981770F5E091AC
:1014F000610481E08E0F80936104F0E0EE59FB4FB0
:1015000080818093BB0085EC85C080931C048DC0D6
:10151000E091610481E08E0F809361048091BB00B3
:10152000F0E0EE59FB4F808390916104809160045C
:101530006DC0E091610481E08E0F80936104809121
:10154000BB00F0E0EE59FB4F80838091870481114E
:101550006CC081E08093860484EA60C083E080935D
:10156000890410921D04CFCF80911D04803208F0B1
:1015700050C0E0911D0481E08E0F80931D04809186
:10158000BB00F0E0E25EFB4F8083BDCF80911D0485
:10159000803230F4E0911D04F0E0E25EFB4F1082F7
:1015A0000E94EB0960911D0470E0E0918204F091CB
:1015B00083048EE194E0099510921D040E94F509C0
:1015C00036C084E08093890410923F0410923E0458
:1015D000E0918404F0918504099580913E04811185
:1015E00005C081E080933E0410924004E0913F04E6
:1015F00081E08E0F80933F04F0E0E05CFB4F808140
:101600008093BB0090913F0480913E04981708F4AA
:101610007ACF85E88093BC000AC085EC8093BC003B
:101620001092890404C010921C040E94EB09FF91DF
:10163000EF91BF91AF919F918F917F916F915F914A
:101640004F913F912F910F900FBE0F901F901895C3
:101650008091B90490E02091BA04821B9109089509
:101660002091BA048091B904281750F4E22FF0E0D9
:10167000E554FB4F808190E02F5F2093BA040895DA
:101680008FEF9FEF0895E091BA048091B904E817B5
:1016900030F4F0E0E554FB4F808190E008958FEF47
:1016A0009FEF08950895CF92DF92EF92FF920F93EC
:1016B0001F93CF93DF937C01CB018A012091960485
:1016C000222389F0EB016B01C40ED51ECC15DD057C
:1016D00069F06991D701ED91FC910190F081E02DC5
:1016E000C7010995F3CF642F0E94D209C801DF9189
:1016F000CF911F910F91FF90EF90DF90CF900895C1
:10170000CF93DF931F92CDB7DEB769832091960404
:101710002223D1F020919704203240F021E030E0E4
:10172000FC013383228380E090E015C0809198040F
:10173000E82FF0E0E756FB4F998190838F5F80930D
:1017400098048093970405C061E0CE0101960E9441
:10175000D20981E090E00F90DF91CF910895FC01D4
:101760001382128248EE53E060E070E044835583B8
:10177000668377838FE391E09183808308958AE87D
:1017800094E00C94AF0B2F923F924F925F926F9226
:101790007F928F929F92AF92BF92CF92DF92EF9201
:1017A000FF920F931F93CF93DF93CDB7DEB72B97A5
:1017B0000FB6F894DEBF0FBECDBF9B878A87DC01D2
:1017C000D896BC91B983B11102C01982E2C00E94BF
:1017D0004E1A6A837B838C839D83EA85FB8580A177
:1017E00091A1A2A1B3A14A815B816C817D81481B3B
:1017F000590B6A0B7B0B84A595A5A6A5B7A5481721
:1018000059076A077B0708F3028CF38DE02D80806F
:101810009180A280B380AA85BB855E96ED91FC91F4
:101820005F97A501940160817181828193810E94FB
:101830000C1C2B013C01EA85FB85208931894289FA
:1018400053890E94C41DAA85BB8594962D913D9114
:101850004D915C9197970E940D1C6B017C01EA856C
:10186000FB8564A375A386A397A324A835A806A91E
:1018700017A99101A8010E94C01D18161CF4C101EE
:10188000D80118C0AA85BB85D0968D919D910D90E9
:10189000BC91A02D8E839F83A887B9879C01AD0141
:1018A000C701B6010E94711C87FF0AC08E819F810B
:1018B000A885B985EA85FB8584A395A3A6A3B7A3CC
:1018C000AA85BB851C962D913D914D915C911F97EA
:1018D000C301B2010E94C41DEA85FB8524A135A184
:1018E00046A157A10E940D1C6B017C01AA85BB85F6
:1018F00098962D913D914D915C919B97C501B401B6
:101900000E940C1CEA85FB85248935894689578904
:101910000E94C41D9B01AC01C701B6010E940C1CB2
:101920006B017C019101A8010E94C01D1816BCF03A
:10193000AA85BB85D0962C90D097D1963C90D19714
:10194000D2960C91D297D3961C919101A801B60121
:10195000C7010E94711C87FD02C016018701AA857C
:10196000BB855C96ED91FC915D97C101D8018083A8
:101970009183A283B383EA85FB8580A691A6A2A664
:10198000B3A68A819B81AC81BD8180A391A3A2A3D0
:10199000B3A389812B960FB6F894DEBF0FBECDBFDF
:1019A000DF91CF911F910F91FF90EF90DF90CF903B
:1019B000BF90AF909F908F907F906F905F904F906F
:1019C0003F902F9008952F923F924F925F926F9287
:1019D0007F928F929F92AF92BF92CF92DF92EF92BF
:1019E000FF920F931F93CF93DF9300D000D0CDB71A
:1019F000DEB71C012A013B014801590120E030E01B
:101A0000A901C301B2010E94711C87FD78C020E0CA
:101A100030E0A901C501B4010E94711C87FD6FC0AF
:101A200020E030E0A901C701B6010E94711C87FDCA
:101A300066C0F10140825182628273828482958203
:101A4000A682B782C086D186E286F38664A575A594
:101A500086A597A50E940E1D20E030E04AE754E4D9
:101A60000E94751C69837A838B839C83F101448671
:101A70005586668677869B01AC01C501B4010E943C
:101A8000C41D4B015C01F101608B718B828B938BC8
:101A900029813A814B815C81C701B6010E94751C86
:101AA0006B017C01F101648B758B868B978B808D2C
:101AB000918D019721F5A301920160E070E0CB01C7
:101AC0000E940C1CF1016487758786879787A501A2
:101AD000940160E070E0CB010E940C1CF101608B6E
:101AE000718B828B938BA701960160E070E0CB0134
:101AF0000E940C1CF101648B758B868B978B0F9069
:101B00000F900F900F90DF91CF911F910F91FF9049
:101B1000EF90DF90CF90BF90AF909F908F907F908D
:101B20006F905F904F903F902F9008958F929F926B
:101B3000AF92BF92CF92DF92EF92FF92CF93DF935B
:101B4000EC01EC8DFD8DC080D180E280F380CCA2D1
:101B5000DDA2EEA2FFA2EA8DFB8D80819181A281A0
:101B6000B38188A799A7AAA7BBA78CA89DA8AEA850
:101B7000BFA8A5019401C701B6010E94C01D181697
:101B800064F088A899A8AAA8BBA8A5019401C701D8
:101B9000B6010E94711C87FF04C08CA29DA2AEA258
:101BA000BFA2DF91CF91FF90EF90DF90CF90BF90D9
:101BB000AF909F908F9008951F93CF93DF93EC0188
:101BC00011E06130710509F010E088AD91E08927DE
:101BD000181303C0CE010E94960D18AFDF91CF916C
:101BE0001F9108950F931F93CF93DF93EC018B0107
:101BF00088AD882361F1888D998D6817790739F14F
:101C00002C853D854E855F8560E070E0CB010E94AC
:101C10000C1C6C877D878E879F87288939894A8924
:101C20005B8960E070E0CB010E940C1C688B798BB3
:101C30008A8B9B8B2C893D894E895F8960E070E09F
:101C4000CB010E940C1C6C8B7D8B8E8B9F8B198F14
:101C5000088FDF91CF911F910F9108954F925F925E
:101C60006F927F928F929F92AF92BF92CF92DF92AC
:101C7000EF92FF920F931F93CF93DF9300D000D08A
:101C8000CDB7DEB74C0127013801A982BA82CB82D9
:101C9000DC82FC01558F448F738F628F378F268FC4
:101CA00010AE10AA11AA12AA13AA80E090E0AFE722
:101CB000B3E484AB95ABA6ABB7AB84E690E0A0E011
:101CC000B0E084A795A7A6A7B7A76B8D7C8DC401AC
:101CD0000E94F20DCF88D88CE98CFA8C09811A8188
:101CE0002B813C81B301A201C4010E94E30C0E943C
:101CF0004E1AF40144A455A466A477A46419750986
:101D00008609970960A371A382A393A30F900F90F4
:101D10000F900F90DF91CF911F910F91FF90EF9057
:101D2000DF90CF90BF90AF909F908F907F906F90FB
:101D30005F904F900895FF920F931F93CF93DF937F
:101D4000FC010081C181D281F8948981F02EF09448
:101D50008F21898378941DE7115029F182E090E06A
:101D60000E94A51A88818023B9F3F8948A818F2173
:101D70008A838981802B8983789480EE91E00E9408
:101D8000A51AF89489818F21898386E490E00E94C6
:101D9000A51A8881802311E009F010E078948AE97F
:101DA00091E00E94A51A812FDF91CF911F910F9191
:101DB000FF9008951F93CF93DF93FC011081C181A1
:101DC000D281912F909560FF12C0F8948A81892367
:101DD0008A838981812B89838AE090E00E94A51AF9
:101DE0008A81812B8A83789487E390E011C0F894EC
:101DF0008A8189238A838981812B898381E490E088
:101E00000E94A51A8A81812B8A83789485E090E0CC
:101E1000DF91CF911F910C94A51A0F931F93CF932D
:101E2000DF93FC011081C181D281F8948981812BDB
:101E300089838A81012F009580238A8383E090E043
:101E40000E94A51A8981802389838AE090E00E94FC
:101E5000A51AC881789485E390E00E94A51A1C23F6
:101E600081E009F480E0DF91CF911F910F910895F7
:101E7000CF92DF92EF92FF920F931F93CF93DF9356
:101E80001F92CDB7DEB76C01E62E08E010E0FF240C
:101E9000F39461E09F2D9E2109F460E0C60149831F
:101EA0000E94DA0EFF0C015011094981011511053C
:101EB00081F7411115C0F894D6011196ED91FC916E
:101EC000129791818C918095892381831196ED9150
:101ED000FC91129792818C918095892382837894CA
:101EE0000F90DF91CF911F910F91FF90EF90DF90B6
:101EF000CF900895EF92FF920F931F93CF93DF93AC
:101F00008C01C8E0D0E0F12CEE24E394C8010E94DB
:101F10000D0F8111FE28EE0C2197C1F78F2DDF9157
:101F2000CF911F910F91FF90EF900895CF92DF9284
:101F3000FF920F931F93CF93DF931F92CDB7DEB71E
:101F40008C01F62E40E065E579830E94380FCF2C96
:101F50007981D72E88E0F82EF60161916F0140E07B
:101F6000C8010E94380FFA94B9F70F90DF91CF9112
:101F70001F910F91FF90DF90CF900895FC01138681
:101F80001586148627E030E0DF01A20FB31F1396F9
:101F90001C922115310519F021503109F5CF089512
:101FA0001F93CF93DF93EC01162F60E0812F0E94E7
:101FB000731B612F70E0FB01E559F84FE491E88352
:101FC000FB01E158F84FE491F0E0EE0FFF1FED56F2
:101FD000F84F859194919A838983CE01DF91CF91B7
:101FE0001F910C94BE0FAF92BF92CF92DF92EF92EF
:101FF000FF920F931F93CF93DF931F92CDB7DEB75E
:102000005C01D62EE72EFC01858581115DC0C501DE
:102010000E949B0E811105C0F5011386158614865A
:102020006CC040E060EFC5010E94380F01E0F12C68
:10203000C12C11E0C5010E940D0F682FC5016983F5
:102040000E940D0F6981613019F48130B9F433C0F9
:102050002F2D30E068131BC0F5018385181730F46D
:10206000E20FF31F8381802349F402C0181731F077
:1020700060E0193058F4F501148708C0F501EF0D40
:10208000F11D8381802B838361E009C0C12EF5019E
:10209000E20FF31F8381902F909589238383C501DD
:1020A0000E94DA0E1F5F000F11F4F39401E0F7E0D5
:1020B000FF1508F0BFCF113438F0F501C386C11009
:1020C00009C081E0858706C0F50113861586148650
:1020D00080E013C0F50183818823B1F3ED2DFE2D3F
:1020E00080E090E0D501A80FB91F13962C912193A1
:1020F000019688309105B1F781E00F90DF91CF9183
:102100001F910F91FF90EF90DF90CF90BF90AF9015
:102110000895DC0180E0615038F0ED91E827F0E0AF
:10212000E050FF4F8491F7CF0895AF92BF92DF92B6
:10213000EF92FF920F931F93CF93DF9300D0CDB711
:10214000DEB75C01D62E862F972FFC01E158F84FA1
:10215000E491F0E0EE0FFF1FE356F84F65917491A4
:10216000F50171836083FC01E559F84F8491F50115
:102170008287FA01E158F84FE491F0E0EE0FFF1F7B
:10218000E356F84F65917491F50173836283FA0108
:10219000E559F84F8491F5018387F901E158F84F2B
:1021A000E491F0E0EE0FFF1FE356F84F8591949114
:1021B000F50195838483F901E559F84F6491F501A0
:1021C0006487F801E158F84FE491F0E0EE0FFF1F4B
:1021D000E356F84F85919491F50197838683F80132
:1021E000E559F84F6491F5016587F701E158F84F1B
:1021F000E491F0E0EE0FFF1FE356F84F85919491C4
:10220000F50191878087F701E559F84FA491F50111
:10221000A68761E08D2D2A8349830E94731B61E0AC
:102220004981842F0E94731B61E02A81822F0E94C2
:10223000731B61E0802F0E94731B61E08E2D0E9452
:10224000731BF501D786008B0F900F90DF91CF9114
:102250001F910F91FF90EF90DF90BF90AF90089586
:10226000FC012685A085B1858C9190E030E0209519
:102270003095822393238C93A481B581411109C0A9
:1022800024858C9190E030E0209530958223932333
:1022900003C094858C91892B8C9348E0A281B381F3
:1022A00067FF04C093858C91892B08C023858C918E
:1022B00090E030E020953095822393238C93660F35
:1022C0002285A081B1818C9190E030E020953095FD
:1022D000822393238C9300009285A081B1818C91FD
:1022E000892B8C934150D1F696850084F185E02DA1
:1022F0008081892B808308950F931F93CF93DF9361
:10230000EC01FC01E05FFD4F808181111AC040E0CB
:1023100060E4CE010E94301140E060E8CE010E94EE
:10232000301100E010E0FE01E00FF11F41E0608D90
:10233000CE010E9430110F5F1F4F083F81E0180748
:1023400091F7DF91CF911F910F91089520E030E038
:10235000FC01E20FF31F108E2F5F3F4F283F41E03B
:102360003407B1F708950F931F93CF93DF93EC01D8
:102370008B01603871052CF477FF05C000E010E098
:1023800002C00FE710E09C85EC81FD818081892BE4
:1023900080839B85EA81FB818081892B80839A855C
:1023A000E881F9818081892B80839E85E885F98584
:1023B0008081892B80832D85EE81FF81808190E053
:1023C00030E0209530958223932380836AE070E08B
:1023D00080E090E00E947D1A9D85EE81FF818081E2
:1023E000892B808340E061E2CE010E943011602F92
:1023F000606840E0CE010E94301140E066E0CE010E
:102400000E94301140E063E1CE010E94301140E0B3
:1024100060E2CE010E94301140E060E4CE010E94F3
:10242000301140E060E8CE010E94301140E06CE0E5
:10243000CE010E943011CE010E94A611CE010E9451
:102440007C111A8A198AFE01E05FFD4F1082CF5E6F
:10245000DD4F19830883DF91CF911F910F9108956C
:1024600040E0662311F06DE001C06CE00C94301187
:1024700064357105F8F440335105E0F49A01E3E066
:1024800036952795EA95E1F7A4E5A29FF001A39F71
:10249000F00D1124E60FF71FE80FF91F47705527BD
:1024A00081E090E0042E01C0880F0A94EAF7908D35
:1024B000982B908F08956435710500F540335105D0
:1024C000E8F49A01F3E036952795FA95E1F7A4E54B
:1024D000A29FF001A39FF00D1124E60FF71FE80F54
:1024E000F91F4770552781E090E0042E01C0880F46
:1024F0000A94EAF78095908D9823908F08954F92D3
:102500005F926F927F928F929F92AF92BF92CF9283
:10251000DF92EF92FF920F931F93CF93DF93EC0123
:102520006A0129018C89382F37709B8970E02D89C9
:10253000311165C0869586958695621B7109989FB5
:10254000C0011124689F3001699F700C789F700C46
:10255000112484E0680E711C4201A12CB12C8C89DD
:1025600086958695869590E0A816B9060CF0A6C0CB
:10257000230186018B8990E098012C193D092817C9
:102580003907B4F5E12CF12C2B892A9DC0012B9D34
:10259000900D1124840D951DE989FA89E80FF91F22
:1025A000E491F0E00E2C02C0F595E7950A94E2F76D
:1025B0008F89A701480D591DB801E0FF03C08111A3
:1025C00003C006C0811104C0CE010E945B1203C08B
:1025D000CE010E9438128FEFE81AF80A88E0E81658
:1025E000F10491F60F5F1F4F8FEF481A580AC2CFC0
:1025F0008FEFA81AB80A88E0880E911CB0CF621B32
:102600007109989FC001112413E0959587951A953B
:10261000E1F7689F5001699FB00C789FB00C1124BE
:1026200084E0A80EB11CE989FA89EA0DFB1D6490CB
:10263000712C7A0107E0802E912C8B8990E0970114
:102640002C193D0928173907CCF582018C8990E0B7
:102650009801241935092817390764F52F89C30112
:10266000082C02C0959587950A94E2F7A801B70156
:1026700080FF04C0CE01211104C006C0CE0121118B
:1026800003C00E945B1202C00E94381281E0881AC7
:10269000910897FE0CC08FEFA81AB80AE989FA8949
:1026A000EA0DFB1D6490712CB7E08B2E912C0F5F0F
:1026B0001F4FCCCF8FEFE81AF80ABFCFDF91CF9131
:1026C0001F910F91FF90EF90DF90CF90BF90AF9050
:1026D0009F908F907F906F905F904F9008958F9212
:1026E0009F92AF92BF92CF92DF92EF92FF920F93A1
:1026F0001F93CF93DF937C018A015901EB0109906D
:102700000020E9F72197C61BD70B4F3087E2580707
:1027100059F4F70123892C9FC0012D9F900D11249E
:1027200004E510E0081B190B0E30F7E21F0789F4CF
:10273000F70123892C9FC0012D9F900D112404E5E2
:1027400010E0081B190B17FF02C00F5F1F4F1595F4
:1027500007954B01C12CD12CCC16DD06A4F4F40155
:1027600061914F01F70183898C9DA0018D9D500DD2
:102770001124400F511F9501C7010E947F12FFEFE6
:10278000CF1ADF0AE9CFDF91CF911F910F91FF9010
:10279000EF90DF90CF90BF90AF909F908F90089573
:1027A0002F923F924F925F926F927F928F929F9261
:1027B000AF92BF92CF92DF92EF92FF920F931F934F
:1027C000CF93DF93CDB7DEB7EA970FB6F894DEBFAD
:1027D0000FBECDBF9EAB8DAB4A015B0138AF2FABB7
:1027E0001AAF09AF411551056105710509F5E114ED
:1027F000F104D1F0FE01319680E090E03E2F2F2FC2
:1028000041E0E41AF1088E159F051CF4C19201966F
:10281000FACFE32FF22FE80FF91F20E32083FE0108
:10282000E80FF91F128290C080E389831A828CC05E
:1028300077FF0BC0B094A09490948094811C911C5D
:10284000A11CB11CDD24D39401C0D12C8E01045EE7
:102850001F4F38019AE0292E312C412C512CC801F0
:102860008619970981149104A104B104D1F0C5011E
:10287000B401A20191010E945D1E20E3260FD80140
:102880002D938D01A5019401261B370B480B590B85
:10289000CA01B901A20191010E945D1E49015A01BC
:1028A000DECFF301E80FF91F1082DD2011F02DE2D9
:1028B00029836D2D70E0FC01E60FF71FEE15FF0573
:1028C000C4F420E030E0E81AF90AE61AF70A41E019
:1028D00050E04C0F5D1F460F571F2E153F053CF46F
:1028E000DA01A20FB31FCC922F5F3F4FF6CFF7FE56
:1028F00002C0E12CF12C40E050E020E030E06E0D11
:102900007F1DA1E0B0E0AC0FBD1F6A0F7B1F680EFA
:10291000791E41505109281739076CF46B01C20E1A
:10292000D31E8301040F151FD8011C91D6011C93DF
:102930002F5F3F4FEECFA1E0B0E0AC0FBD1FAE0D5B
:10294000BF1DAE0FBF1F1C9229AD3AAD4FA958ADA8
:10295000BE016F5F7F4F8DA99EA90E946F13EA96FB
:102960000FB6F894DEBF0FBECDBFDF91CF911F91A0
:102970000F91FF90EF90DF90CF90BF90AF909F901E
:102980008F907F906F905F904F903F902F90089521
:102990002F923F924F925F926F927F928F92AF925F
:1029A000CF92EF92FF920F931F93CF93DF93CDB708
:1029B000DEB76D970FB6F894DEBF0FBECDBF3C01FA
:1029C0001A012B011D8F0C8F4A2D8E010F5F1F4F97
:1029D000C201B1010E94961E8EE2C81204C080E2BC
:1029E000881234C014C0FE013196CE014C96E8170F
:1029F000F907A9F320812E3209F4C0823196F7CF6E
:102A00008DE28983FE013296E217F30771F5970193
:102A10004C8D5D8DBE016F5F7F4FC3010E946F13B0
:102A20006D960FB6F894DEBF0FBECDBFDF91CF918C
:102A30001F910F91FF90EF90CF90AF908F907F906C
:102A40006F905F904F903F902F90089520E030E07E
:102A5000A901C201B1010E94711C9E01245E3F4F79
:102A600087FDCECFFE0131960DC08081803211F0FE
:102A70008D3209F480823196C7CF8081803209F48B
:102A800080823196E217F307C1F7C1CFDC0152967D
:102A90007C936E935197FB01849153968C9353973B
:102AA0003196E4915496EC935497FB013296E4915D
:102AB0005596EC935597FB013396649156966C931B
:102AC000569757961C920895CF936435710558F523
:102AD0004033510540F5DA01E3E0B595A795EA9555
:102AE000E1F7C4E5CA9FF001CB9FF00D1124E60F7A
:102AF000F71F4770552761E001C0660F4A95EAF756
:102B000040E050E0E80FF91F4217530764F4DF017B
:102B1000A40FB51F58968C915897862B58968C9376
:102B20004F5F5F4FF1CFCF910895AF92BF92CF9299
:102B3000DF92EF92FF920F931F93CF93DF936C017D
:102B40008B017A0159016435710588F440335105D0
:102B500070F4C0E0D0E0CA15DB054CF4AE014E0DB8
:102B60005F1DB801C6010E9438122196F4CFDF9193
:102B7000CF911F910F91FF90EF90DF90CF90BF907A
:102B8000AF9008958F929F92AF92BF92CF92DF92B3
:102B9000EF92FF920F931F93CF93DF935C017B0122
:102BA000EA0169012617370724F48F2D7901C62E13
:102BB000D82E0C171D072CF49C2F8D2FE801092F00
:102BC000182F46018E189F089401AE01B701C50168
:102BD0000E9464159401A801B701C5010E94641503
:102BE0000C1B1D0B9801AE01B701C5010E94951584
:102BF00098012F5F3F4FAE01B601C501DF91CF9124
:102C00001F910F91FF90EF90DF90CF90BF90AF900A
:102C10009F908F900C9495152F923F924F925F92B8
:102C20006F927F928F929F92AF92BF92CF92DF92DC
:102C3000EF92FF920F931F93CF93DF9300D000D0BA
:102C4000CDB7DEB74C016B015901280117018A018C
:102C50001C821B82A61AB70A2B813C8122153305E0
:102C60000CF048C08B819C8197FD079623E09595D9
:102C700087952A95E1F7849D7001859DF00C949DC0
:102C8000F00C11248B819C8168E070E00E94271E6B
:102C900021E030E002C0220F331F8A95E2F73A8329
:102CA00029833601EA0CFB1CC3018C199D0984158C
:102CB0009505BCF4F701E60DF71DE491F0E02981DC
:102CC0003A81E223F323A801B301C401EF2B19F0E9
:102CD0000E94381202C00E945B123FEF631A730A0F
:102CE000E3CF2B813C812F5F3F4F3C832B830F5FD2
:102CF0001F4FB2CF0F900F900F900F90DF91CF9199
:102D00001F910F91FF90EF90DF90CF90BF90AF9009
:102D10009F908F907F906F905F904F903F902F90FB
:102D20000895CF93DF93EC0170E0FB01E559F84F74
:102D3000E491E883FB01E158F84FE491F0E0EE0FF5
:102D4000FF1FED56F84F859194919A8389830E94D5
:102D50004E1A6B837C838D839E838DE19CEF9887D5
:102D60008F839A878987DF91CF9108957F928F9281
:102D70009F92AF92BF92CF92DF92EF92FF920F930A
:102D80001F93CF93DF93CDB7DEB7A9970FB6F89413
:102D9000DEBF0FBECDBF7C01FC01708001811281BE
:102DA0000E944E1A6E01FAE2CF0ED11CFE0131963E
:102DB0001192EC15FD05E1F7F70183809480A58061
:102DC000B6809B01AC01281939094A095B09490100
:102DD0005A0130ED831637E09306A104B10408F4DC
:102DE000D8C06383748385839683F894F8018181C6
:102DF000B72CB0948B2181837894EEE7AE2E82E0DD
:102E000090E00E94A51AF8018081872129F4AA94F4
:102E1000B1F781E090E0C2C0F894F80182818B2183
:102E2000828381818729818378948CE494E00E9455
:102E3000A51AF894F80181818B21818378947AE135
:102E4000B72E82E090E00E94A51AF80180818721C8
:102E500029F4BA94B1F782E090E0A0C063E3B62E03
:102E600082E090E00E94A51AF8018081872129F074
:102E7000BA94B1F783E090E091C09E012F5F3F4F7D
:102E8000590154E2952E82E090E00E94A51AF801C3
:102E90008081872129F49A94B1F784E090E07EC084
:102EA000912C939482E090E00E94A51AF801808111
:102EB000872131F0F3E39F12F4CF85E090E06EC0FC
:102EC000F50191925F01EC15FD05D9F6FE013296F0
:102ED0008FE090E040E050E021E030E061916C3024
:102EE00048F0B901082E02C0660F771F0A94E2F776
:102EF000462B572B019790F7FE0172968FE090E0DA
:102F000020E030E061E070E0A191AC3048F0DB01FE
:102F1000082E02C0AA0FBB1F0A94E2F72A2B3B2BF4
:102F2000019790F7FE01B29687E090E060E0A1E0A3
:102F3000B0E071917C3038F08D01082E01C0000F97
:102F40000A94EAF7602B0197A0F7CA019F77F7016F
:102F50009087878337FF08C088279927821B930BA8
:102F60009F779287818703C0F7013287218770E0BE
:102F7000852F9927840F911D432F5527840F951F67
:102F8000820F911D99276817790731F480E090E04E
:102F900005C087E090E002C086E090E0A9960FB6F9
:102FA000F894DEBF0FBECDBFDF91CF911F910F917F
:102FB000FF90EF90DF90CF90BF90AF909F908F9059
:102FC0007F900895FC01818D228D90E0805C9F4F61
:102FD000821B91098F7399270895FC01918D828D31
:102FE000981731F0828DE80FF11D858D90E00895DE
:102FF0008FEF9FEF0895FC01918D828D981761F0FE
:10300000828DDF01A80FB11D5D968C91928D9F5F1F
:103010009F73928F90E008958FEF9FEF08958FE751
:1030200099E1892B49F080E090E0892B29F00E94FA
:103030007F1981110C9400000895FC01848DDF013B
:10304000A80FB11DA35ABF4F2C91848D90E001961B
:103050008F739927848FA689B7892C93A089B1890A
:103060008C9180648C93938D848D981306C0028814
:10307000F389E02D80818F7D80830895CF93DF9346
:10308000EC01888D8823C9F0EA89FB89808185FD60
:1030900005C0A889B9898C9186FD0FC00FB607FCC1
:1030A000F5CF808185FFF2CFA889B9898C9185FF02
:1030B000EDCFCE010E941D18E7CFDF91CF9108958B
:1030C000CF92DF92FF920F931F93CF93DF931F92C4
:1030D000CDB7DEB76C0181E0D60158968C93589736
:1030E0005B969C915B975C968C915C97981307C05C
:1030F0005096ED91FC915197808185FD2EC0F6018F
:10310000038D10E00F5F1F4F0F731127F02EF60194
:10311000848DF81211C00FB607FCF9CFD601509676
:10312000ED91FC915197808185FFF1CFC6016983B4
:103130000E941D186981EBCF838DE80FF11DE35AC2
:10314000FF4F6083D6015B960C935B975296ED918F
:10315000FC915397808180620CC0D6015696ED9108
:10316000FC91579760835096ED91FC915197808127
:103170008064808381E090E00F90DF91CF911F9178
:103180000F91FF90DF90CF900895BF92CF92DF9282
:10319000EF92FF92CF93DF93EC016A017B01B22E95
:1031A000E889F98982E08083411581EE580761053D
:1031B0007105A1F060E079E08DE390E0A701960150
:1031C0000E943B1E215031094109510956954795EE
:1031D00037952795211580E1380798F0E889F98916
:1031E000108260E874E88EE190E0A70196010E94E9
:1031F0003B1E215031094109510956954795379594
:103200002795EC85FD853083EE85FF852083188E1C
:10321000EC89FD89B082EA89FB89808180618083A5
:10322000EA89FB89808188608083EA89FB898081C3
:1032300080688083EA89FB8980818F7D8083DF912C
:10324000CF91FF90EF90DF90CF90BF9008951F92A5
:103250000F920FB60F9211242F938F939F93EF939A
:10326000FF93E091EB04F091EC048081E091F10494
:10327000F091F20482FD12C090818091F4048F5F7E
:103280008F732091F504821751F0E091F404F0E07F
:10329000E552FB4F958F8093F40401C08081FF912C
:1032A000EF919F918F912F910F900FBE0F901F90D4
:1032B00018951F920F920FB60F9211242F933F93E0
:1032C0004F935F936F937F938F939F93AF93BF932E
:1032D000EF93FF938BED94E00E941D18FF91EF9107
:1032E000BF91AF919F918F917F916F915F914F911E
:1032F0003F912F910F900FBE0F901F9018958BED5F
:1033000094E00E94E21721E0892B09F420E0822F4B
:1033100008951092DE041092DD0488EE93E0A0E0A0
:10332000B0E08093DF049093E004A093E104B093B5
:10333000E2048FE491E09093DC048093DB0485EC5D
:1033400090E09093E8048093E70484EC90E09093FD
:10335000EA048093E90480EC90E09093EC0480937D
:10336000EB0481EC90E09093EE048093ED0482EC0A
:1033700090E09093F0048093EF0486EC90E09093BB
:10338000F2048093F1041092F4041092F504109268
:10339000F6041092F7040895CF92DF92EF92FF9215
:1033A0000F931F93CF93DF936C017A01EB01E60E2D
:1033B000F71E00E010E0CE15DF0561F06991D6013F
:1033C000ED91FC910190F081E02DC6010995080F67
:1033D000191FF1CFC801DF91CF911F910F91FF907D
:1033E000EF90DF90CF90089508950E94B01A0E9448
:1033F000F4190E94DA05CFE0D8E10E9484082097F2
:10340000E1F30E940F18F9CF1F920F920FB60F929F
:1034100011242F933F938F939F93AF93BF938091EA
:10342000790590917A05A0917B05B0917C0530914A
:10343000780523E0230F2D3720F40196A11DB11D3F
:1034400005C026E8230F0296A11DB11D2093780523
:103450008093790590937A05A0937B05B0937C05C2
:1034600080917D0590917E05A0917F05B0918005AA
:103470000196A11DB11D80937D0590937E05A093BB
:103480007F05B0938005BF91AF919F918F913F9140
:103490002F910F900FBE0F901F9018952FB7F89493
:1034A0006091790570917A0580917B0590917C05FA
:1034B0002FBF08953FB7F89480917D0590917E05C8
:1034C000A0917F05B091800526B5A89B05C02F3F30
:1034D00019F00196A11DB11D3FBF6627782F892FD6
:1034E0009A2F620F711D811D911D42E0660F771F9B
:1034F000881F991F4A95D1F70895CF92DF92EF92D6
:10350000FF92CF93DF936B017C010E945A1AEB016B
:10351000C114D104E104F10489F00E940B1C0E9443
:103520005A1A6C1B7D0B683E734090F381E0C81AF9
:10353000D108E108F108C851DC4FEACFDF91CF9103
:10354000FF90EF90DF90CF9008958230910538F092
:10355000880F991F880F991F05970197F1F7089514
:10356000789484B5826084BD84B5816084BD85B55E
:10357000826085BD85B5816085BDEEE6F0E0808125
:1035800081608083E1E8F0E0108280818260808346
:10359000808181608083E0E8F0E0808181608083C9
:1035A000E1EBF0E0808184608083E0EBF0E08081FB
:1035B00081608083EAE7F0E080818460808380819D
:1035C0008260808380818160808380818068808345
:1035D0001092C10008951F93CF93DF93182FEB0132
:1035E00061E00E94731B209711F460E004C0CF3F9C
:1035F000D10539F461E0812FDF91CF911F910C94B7
:10360000AC1BE12FF0E0E95AF84FE491E330F9F018
:1036100048F4E130B9F0E230A1F584B5806284BDB0
:10362000C8BD34C0E730E9F0E83019F1E43049F5BD
:1036300080918000806280938000D0938B00C09343
:103640008A0024C084B5806884BDC7BD1FC0809136
:103650008000806880938000D0938900C0938800A8
:1036600015C08091B00080688093B000C093B30013
:103670000DC08091B00080628093B000C093B40010
:1036800005C0C038D1050CF0B5CFAFCFDF91CF91D9
:103690001F910895833081F028F4813099F08230B1
:1036A000A1F008958730A9F08830B9F08430D1F4C2
:1036B000809180008F7D03C0809180008F77809300
:1036C0008000089584B58F7702C084B58F7D84BD56
:1036D00008958091B0008F7703C08091B0008F7DF6
:1036E0008093B0000895CF93DF9390E0FC01E559FB
:1036F000F84F2491FC01E158F84F8491882349F157
:1037000090E0880F991FFC01E955F84FA591B491FD
:103710008356984FFC01C591D4919FB7611108C0A1
:10372000F8948C91209582238C93888182230AC0FF
:10373000623051F4F8948C91322F309583238C931E
:103740008881822B888304C0F8948C91822B8C937F
:103750009FBFDF91CF9108950F931F93CF93DF9376
:103760001F92CDB7DEB7282F30E0F901E95AF84FA4
:103770008491F901E559F84F1491F901E158F84F96
:1037800004910023C9F0882321F069830E944A1B19
:103790006981E02FF0E0EE0FFF1FE356F84FA5918F
:1037A000B4919FB7F8948C91611103C01095812357
:1037B00001C0812B8C939FBF0F90DF91CF911F9100
:1037C0000F910895CF93DF93282F30E0F901E95A44
:1037D000F84F8491F901E559F84FD491F901E15876
:1037E000F84FC491CC2391F081110E944A1BEC2F19
:1037F000F0E0EE0FFF1FED56F84FA591B4912C911C
:103800002D2381E090E021F480E002C080E090E090
:10381000DF91CF91089508955058BB27AA270ED065
:1038200075C166D130F06BD120F031F49F3F11F4B7
:103830001EF45BC10EF4E095E7FB51C1E92F77D18F
:1038400080F3BA17620773078407950718F071F4BD
:103850009EF58FC10EF4E0950B2EBA2FA02D0B0113
:10386000B90190010C01CA01A0011124FF27591BC5
:1038700099F0593F50F4503E68F11A16F040A22FCB
:10388000232F342F4427585FF3CF4695379527953C
:10389000A795F0405395C9F77EF41F16BA0B620B3B
:1038A000730B840BBAF09150A1F0FF0FBB1F661F82
:1038B000771F881FC2F70EC0BA0F621F731F841FC5
:1038C00048F4879577956795B795F7959E3F08F0EB
:1038D000B3CF9395880F08F09927EE0F97958795AA
:1038E0000895D9D008F481E008950CD00FC107D114
:1038F00040F0FED030F021F45F3F19F0F0C05111DC
:1039000039C1F3C014D198F39923C9F35523B1F306
:10391000951B550BBB27AA2762177307840738F03E
:103920009F5F5F4F220F331F441FAA1FA9F333D09D
:103930000E2E3AF0E0E830D091505040E695001C51
:10394000CAF729D0FE2F27D0660F771F881FBB1F0D
:10395000261737074807AB07B0E809F0BB0B802DE7
:10396000BF01FF2793585F4F2AF09E3F510568F033
:10397000B6C000C15F3FECF3983EDCF386957795C7
:103980006795B795F7959F5FC9F7880F911D969535
:10399000879597F90895E1E0660F771F881FBB1F91
:1039A000621773078407BA0720F0621B730B840B3E
:1039B000BA0BEE1F88F7E095089504D06894B11112
:1039C000D9C00895BCD088F09F5790F0B92F99279F
:1039D000B751A0F0D1F0660F771F881F991F1AF01A
:1039E000BA95C9F712C0B13081F0C3D0B1E00895E3
:1039F000C0C0672F782F8827B85F39F0B93FCCF364
:103A0000869577956795B395D9F73EF4909580950F
:103A1000709561957F4F8F4F9F4F0895E89409C02F
:103A200097FB3EF490958095709561957F4F8F4FF1
:103A30009F4F9923A9F0F92F96E9BB279395F69507
:103A4000879577956795B795F111F8CFFAF4BB0F85
:103A500011F460FF1BC06F5F7F4F8F4F9F4F16C0E9
:103A6000882311F096E911C0772321F09EE8872F73
:103A7000762F05C0662371F096E8862F70E060E02F
:103A80002AF09A95660F771F881FDAF7880F9695A8
:103A9000879597F90895990F0008550FAA0BE0E84C
:103AA000FEEF16161706E807F907C0F01216130600
:103AB000E407F50798F0621B730B840B950B39F440
:103AC0000A2661F0232B242B252B21F408950A26A6
:103AD00009F4A140A6958FEF811D811D089597F9E6
:103AE0009F6780E870E060E008959FEF80EC0895A4
:103AF00000240A94161617061806090608950024CD
:103B00000A9412161306140605060895092E039446
:103B1000000C11F4882352F0BB0F40F4BF2B11F4BA
:103B200060FF04C06F5F7F4F8F4F9F4F089557FD19
:103B30009058440F551F59F05F3F71F04795880F1B
:103B400097FB991F61F09F3F79F0879508951216B2
:103B500013061406551FF2CF4695F1DF08C016165E
:103B600017061806991FF1CF86957105610508940F
:103B70000895E894BB2766277727CB0197F9089526
:103B80008ADF08F48FEF08950BD0C0CFB1DF28F0A3
:103B9000B6DF18F0952309F0A2CFA7CF1124EACF02
:103BA000C6DFA0F3959FD1F3950F50E0551F629F9C
:103BB000F001729FBB27F00DB11D639FAA27F00D86
:103BC000B11DAA1F649F6627B00DA11D661F829FAD
:103BD0002227B00DA11D621F739FB00DA11D621F92
:103BE000839FA00D611D221F749F3327A00D611DAF
:103BF000231F849F600D211D822F762F6A2F112491
:103C00009F5750408AF0E1F088234AF0EE0FFF1FE3
:103C1000BB1F661F771F881F91505040A9F79E3F1A
:103C2000510570F05CCFA6CF5F3FECF3983EDCF31C
:103C3000869577956795B795F795E7959F5FC1F757
:103C4000FE2B880F911D9695879597F9089597FB00
:103C5000072E16F4009407D077FD09D00E947C1E31
:103C600007FC05D03EF4909581959F4F089570957F
:103C700061957F4F0895A1E21A2EAA1BBB1BFD017F
:103C80000DC0AA1FBB1FEE1FFF1FA217B307E4073B
:103C9000F50720F0A21BB30BE40BF50B661F771F93
:103CA000881F991F1A9469F7609570958095909573
:103CB0009B01AC01BD01CF010895052E97FB1EF4B9
:103CC00000940E94741E57FD07D00E943B1E07FC03
:103CD00003D04EF40C94741E509540953095219568
:103CE0003F4F4F4F5F4F0895909580957095619528
:103CF0007F4F8F4F9F4F0895AA1BBB1B51E107C0F9
:103D0000AA1FBB1FA617B70710F0A61BB70B881F6B
:103D1000991F5A95A9F780959095BC01CD010895FA
:103D2000EE0FFF1F0590F491E02D0994EF920F9391
:103D30001F93CF93DF93E80147FF02C034E101C036
:103D400034E0E42FFF27E7FDF095F7FF03C0F1957E
:103D5000E195F109E32E022F2E2FAE010E94D41E11
:103D6000CE01DF91CF911F910F91EF900895FB014C
:103D7000DC0105900D920020E1F70895F999FECF3E
:103D800092BD81BDF89A992780B50895262FF9999B
:103D9000FECF1FBA92BD81BD20BD0FB6F894FA9A2E
:103DA000F99A0FBE019608956F927F929F92AF92FB
:103DB000BF92CF92DF92EF92FF920F931F93CF9318
:103DC000DF93CDB7DEB729970FB6F894DEBF0FBEED
:103DD000CDBF6A01B22E102F0C3320F4FF24F394D0
:103DE000F00E02C04CE3F42E0F2D27E0AE014F5F22
:103DF0005F4F0E9452207981272F2970213031F0A6
:103E0000E1FC06C0E0FC06C060E005C06DE203C056
:103E10006BE201C060E2AE2DA07173FF36C0662375
:103E200011F084E001C083E08B1510F4B81A01C0D2
:103E3000B12CA1110BC0F6018B2D90E2882319F053
:103E400091938150FBCFCB0CD11CB12C662331F068
:103E5000F601608396012F5F3F4F6901C60103960B
:103E6000E2FE05C02EE4F601208331E404C02EE614
:103E7000F601208331E631832283FC012B2D30E2D1
:103E80002223F1F131932150FBCF72FF40C0662312
:103E900011F084E001C083E08B1510F4B81A01C062
:103EA000B12CA1110BC0F6018B2D90E2882319F0E3
:103EB00091938150FBCFCB0CD11CB12C662331F0F8
:103EC000F601608396012F5F3F4F6901C60103969B
:103ED000E2FE07C029E4F60120832EE4218326E4D4
:103EE00006C029E6F60120832EE6218326E62283FA
:103EF000FC012B2D30E2222319F031932150FBCF0E
:103F0000FC01EB0DF11D10828EEF9FEFB7C0B1E009
:103F1000611101C0B0E04B2F50E01816190624F4CF
:103F20009C012F5F3F4F02C021E030E0240F351F7E
:103F3000112329F0412F50E04F5F5F4F02C040E056
:103F400050E0420F531F2B2D30E04217530714F45B
:103F5000B41A01C0B12C2E2D287159F4F6012B2D65
:103F600030E2222319F031932150FBCFCB0CD11C2E
:103F7000B12CBB2331F0F601608396012F5F3F4FD8
:103F80006901A1110BC0F6012B2D30E3222319F09A
:103F900031932150FBCFCB0CD11CB12CF80E0A81F0
:103FA000372F3071A32E74FF03C0013309F4FA9444
:103FB0001F142CF42F2D293018F028E001C021E027
:103FC000682F392F97FF02C060E030E0462F532F53
:103FD000612C712C3EE2932EBC01621B71099B0186
:103FE000DC01A41BB50BE1E0F0E0EC0FFD1FAE0F10
:103FF000BF1FE12EF12CF194E194F1084F3FFFEF48
:104000005F0731F4F6019082B6016F5F7F4F6B015D
:10401000841795074CF02417350734F4BD01660D5D
:10402000771DFB01118101C010E341505109FFEFE1
:104030006F1A7F0AB6016F5F7F4F4E155F0524F040
:10404000F60110836B01DACF4817590739F40633AC
:1040500020F4053319F4A11001C011E3F601108317
:10406000FB018B2D90E2882319F091938150FBCFB7
:10407000FB01EB0DF11D108280E090E029960FB658
:10408000F894DEBF0FBECDBFDF91CF911F910F918E
:10409000FF90EF90DF90CF90BF90AF909F907F9078
:1040A0006F900895283008F027E03327DA01990F40
:1040B000311D87FD916000966105710539F432600C
:1040C0002E5F3D9330E32A95E1F708959F3F30F04E
:1040D00080387105610509F03C5F3C5F3D9391308C
:1040E00008F08068911DDF93CF931F930F93FF9289
:1040F000EF92192F987F9695E92F96959695E90F4F
:10410000FF27E55FF74F99273327EE24FF24A70108
:10411000E70105900894079428F4360FE71EF81E6F
:10412000491F511D660F771F881F991F0694A1F71D
:104130000590079428F4E70EF81E491F561FC11D6D
:10414000770F881F991F661F0694A1F705900794A3
:1041500028F4F80E491F561FC71FD11D880F991F3D
:10416000661F771F0694A1F70590079420F4490F66
:10417000561FC71FD81F990F661F771F881F0694E9
:10418000A9F784911095177041F0D695C79557956A
:104190004795F794E7941A95C1F7E1EBF7E0689437
:1041A0001590159135916591959105907FE27395E4
:1041B000E118F10A430B560BC90BD009C0F7E10C0B
:1041C000F11E431F561FC91FD01D7EF4703311F41A
:1041D0008A95E6CFE894015030F0080F0AF40027E2
:1041E000021708F4202F2395022F7A3328F079E361
:1041F0007D932A95E9F710C07D932A9589F6069458
:1042000097956795379517951794E118F10A430B21
:10421000560BC90BD00998F023957E9173957A338C
:1042200008F070E37C932013B8F77E9170617D9362
:1042300030F0839571E37D9370E32A95E1F71124C3
:10424000EF90FF900F911F91CF91DF91992787FDFC
:0842500090950895F894FFCF4A
:104258000000810580000000803ECDCC4C3D000070
:10426800803F0000803FCDCC4C3E000080400402DF
:104278000305486F740048756D690054656D7000DA
:104288005448433030303030303100000000008076
:104298000B530B280B300B430B520B000000006034
:0C42A80018CC19E217FB17ED173E1800A8
:00000001FF
